:100000000C9434000C9449000C9449000C94490061
:100010000C9449000C9449000C9449000C9449003C
:100020000C9449000C9449000C9449000C9449002C
:100030000C9449000C9449000C9449000C9449001C
:100040000C9449000C9449000C9449000C9449000C
:100050000C9449000C9449000C9449000C944900FC
:100060000C9449000C94490011241FBECFEFD8E036
:10007000DEBFCDBF11E0A0E0B1E0ECE7FAE002C0E6
:1000800005900D92AE36B107D9F70E947E010C940F
:100090003C050C940000EF92FF920F931F93DF93A7
:1000A000CF93CDB7DEB7A2970FB6F894DEBF0FBEE1
:1000B000CDBF7C0180916B0190916C019A83898303
:1000C00000D000D000D0EDB7FEB731968E010D5FA5
:1000D0001F4FADB7BEB712961C930E93119780E0D9
:1000E00091E093838283D7018D919C919583848342
:1000F0000E9464028DB79EB706960FB6F8949EBF15
:100100000FBE8DBFC80160E270E00E94D40100D034
:1001100000D000D0EDB7FEB73196ADB7BEB712969E
:100120001C930E9311978CE091E093838283D70107
:1001300012968D919C911397958384830E946402FB
:100140008DB79EB706960FB6F8949EBF0FBE8DBFB3
:10015000C80160E270E00E94D40100D000D000D05D
:10016000EDB7FEB73196ADB7BEB712961C930E939E
:1001700011978CE191E093838283D70114968D913E
:100180009C911597958384830E9464028DB79EB7D6
:1001900006960FB6F8949EBF0FBE8DBFC80160E2F1
:1001A00070E00E94D40100D000D000D0EDB7FEB7BF
:1001B0003196ADB7BEB712961C930E9311978AE293
:1001C00091E093838283D70116968D919C91179726
:1001D000958384830E9464028DB79EB706960FB6FE
:1001E000F8949EBF0FBE8DBFC80160E270E00E9410
:1001F000D40100D000D000D0EDB7FEB73196ADB736
:10020000BEB712961C930E9311978CE391E09383E3
:100210008283D70118968D919C9119979583848339
:100220000E9464028DB79EB706960FB6F8949EBFE3
:100230000FBE8DBFC80160E270E00E94D40100D003
:1002400000D000D0EDB7FEB73196ADB7BEB712966D
:100250001C930E9311978CE491E093838283D701D2
:1002600012968D919C911397958384830E946402CA
:100270008DB79EB706960FB6F8949EBF0FBE8DBF82
:10028000C80160E270E00E94D40100D000D000D02C
:10029000EDB7FEB73196ADB7BEB712961C930E936D
:1002A00011978DE591E093838283D7011C968D9100
:1002B0009C911D97958384830E9464028DB79EB79D
:1002C00006960FB6F8949EBF0FBE8DBFC80160E2C0
:1002D00070E00E94D401CE01019662E070E00E94BD
:1002E000D401A2960FB6F894DEBF0FBECDBFCF915A
:1002F000DF911F910F91FF90EF900895EF92FF9281
:100300000F931F93DF93CF93CDB7DEB763970FB6ED
:10031000F894DEBF0FBECDBF8E010A5F1F4F8EE087
:10032000F80111928A95E9F70E94A70178018E01E0
:100330000F5F1F4FC7010E944B00C80165E070E0CE
:100340000E940902C701B8010E941D02F3CFE4E632
:10035000F0E080818D7F8083E0ECF0E0808182603E
:1003600080831092C50080E18093C40088E180936F
:10037000C100E2ECF0E080818F77808380818F7B09
:10038000808380818F7D808380818F7E8083808148
:10039000877F808380818B7F80838081846080835E
:1003A0008081826080830895AC0120E030E00EC03F
:1003B0008091C00085FFFCCFFA01E20FF31F80811E
:1003C0008093C600882329F02F5F3F4F26173707F9
:1003D00078F30895DF93CF9300D000D00F92CDB77C
:1003E000DEB78983872F992787FD9A958A836B8348
:1003F0008AE08C831D82CE01019665E070E00E9448
:10040000D4010F900F900F900F900F90CF91DF912C
:100410000895AC0120E030E00CC08091C00087FF5F
:10042000FCCF8091C600FA01E20FF31F80832F5F9B
:100430003F4F2617370788F30895DC01FB018181C0
:10044000992787FD9095382F22278281992787FD4C
:100450009095282B392BE081E332F9F0E4323CF41B
:10046000E13289F0E232A4F4E03239F409C0E53235
:10047000F1F0E532BCF0E632F9F021E030E022C0E4
:100480002D933C931DC013963C932E93129718C046
:1004900015963C932E93149713C017963C932E9366
:1004A00016970EC019963C932E93189709C01B9669
:1004B0003C932E931A9704C01D963C932E931C9741
:1004C00020E030E0C9010895AEE0B0E0EAE6F2E0F5
:1004D0000C9413050D891E8986E08C831A83098389
:1004E0008FEF9FE79E838D839E01275E3F4FCE0156
:1004F00001966F89788DA9010E9488022F81388525
:10050000020F131FF80110822E96E4E00C942F05C1
:10051000ABE0B0E0EEE8F2E00C9405053C012B0105
:100520005A01FC0117821682838181FD03C06FEF9F
:100530007FEFC6C19AE0892E1E010894211C311C50
:10054000F3012381F20123FD859123FF81912F0186
:10055000882309F4B2C1853239F423FD859123FF44
:1005600081912F01853229F490E0B3010E947B0430
:10057000E7CF982FFF24EE249924FFE1FF15D0F058
:100580009B3269F09C3228F4903259F0933291F406
:100590000EC09D3249F0903369F441E024C052E02E
:1005A000F52A84E0F82A28C098E0F92A25C0E0E17D
:1005B000FE2A22C0F7FC29C0892F80538A3070F4AC
:1005C000F6FE05C0989C902C1124980E15C0E89C4E
:1005D000E02C1124E80EF0E2FF2A0EC09E3229F42E
:1005E000F6FC6BC140E4F42A07C09C3619F450E8CD
:1005F000F52A02C0983649F4F20123FD959123FFB4
:1006000091912F01992309F0B8CF892F8554833018
:1006100018F08052833038F444E050E0A40EB51E48
:100620005FE359830FC0933631F0933779F09335F8
:1006300009F056C020C0F5018081898342E050E076
:10064000A40EB51E610101E010E012C0F501C080EA
:10065000D180F6FC03C06FEF7FEF02C0692D70E020
:1006600042E050E0A40EB51EC6010E9470048C0149
:100670005FE7F52214C0F501C080D180F6FC03C00D
:100680006FEF7FEF02C0692D70E042E050E0A40EF2
:10069000B51EC6010E9465048C0150E8F52AF3FEE0
:1006A00007C01AC080E290E0B3010E947B04EA9484
:1006B0008E2D90E008171907A8F30EC0F601F7FC7D
:1006C0008591F7FE81916F0190E0B3010E947B0458
:1006D000E110EA94015010400115110579F7EAC0C4
:1006E000943611F0993669F5F7FE08C0F5012081BE
:1006F00031814281538184E090E00AC0F50180811C
:1007000091819C01442737FD4095542F82E090E071
:10071000A80EB91E9FE6F92257FF09C050954095D3
:10072000309521953F4F4F4F5F4FE0E8FE2ACA01B9
:10073000B901A1012AE030E00E94A704D82ED21806
:1007400040C0953729F41F2D1F7E2AE030E01DC0E0
:100750001F2D197F9F3661F0903720F4983509F0EE
:10076000ACC00FC0903739F0983709F0A6C004C06C
:1007700028E030E00AC0106114FD146020E130E090
:1007800004C014FD166020E132E017FF08C0F50137
:10079000608171818281938144E050E008C0F5015D
:1007A00080819181BC0180E090E042E050E0A40EA5
:1007B000B51EA1010E94A704D82ED2188FE7F82EEB
:1007C000F122F6FE0BC05EEFF522D91438F4F4FEE8
:1007D00007C0F2FC05C08FEEF82202C01D2D01C03B
:1007E000192DF4FE0DC0FE01ED0DF11D8081803349
:1007F00019F499EEF92208C01F5FF2FE05C003C08C
:100800008F2D867809F01F5F0F2DF3FC14C0F0FECA
:100810000FC01E1510F09D2C0BC09D2C9E0C911A24
:100820001E2D06C080E290E0B3010E947B041F5F92
:100830001E15C0F304C01E1510F4E11A01C0EE2409
:1008400004FF0FC080E390E0B3010E947B0402FF2D
:100850001DC001FD03C088E790E00EC088E590E070
:100860000BC0802F867891F001FF02C08BE201C09F
:1008700080E2F7FC8DE290E0B3010E947B0406C0A9
:1008800080E390E0B3010E947B049A94D914C0F3F2
:10089000DA94F101ED0DF11D808190E0B3010E9429
:1008A0007B04DD20A9F706C080E290E0B3010E943E
:1008B0007B04EA94EE20C1F743CEF3016681778191
:1008C000CB012B96E2E10C942105FC0105906150CF
:1008D00070400110D8F7809590958E0F9F1F089556
:1008E000FC016150704001900110D8F780959095FF
:1008F0008E0F9F1F08950F931F93CF93DF938C014B
:10090000EB018B8181FF1BC082FF0DC02E813F81D7
:100910008C819D812817390764F4E881F98101935E
:10092000F983E88306C0E885F985802F0995892B2E
:1009300031F48E819F8101969F838E8302C00FEFD9
:100940001FEFC801DF91CF911F910F910895FA0118
:10095000AA27283051F1203181F1E8946F936E7FFE
:100960006E5F7F4F8F4F9F4FAF4FB1E03ED0B4E0EF
:100970003CD0670F781F891F9A1FA11D680F791F30
:100980008A1F911DA11D6A0F711D811D911DA11D41
:1009900020D009F468943F912AE0269F1124301951
:1009A000305D3193DEF6CF010895462F4770405DEC
:1009B0004193B3E00FD0C9F7F6CF462F4F70405D9B
:1009C0004A3318F0495D31FD4052419302D0A9F7F6
:1009D000EACFB4E0A6959795879577956795BA95F0
:1009E000C9F700976105710508959B01AC010A2EB6
:1009F00006945795479537952795BA95C9F7620F8D
:100A0000731F841F951FA01D08952F923F924F9230
:100A10005F926F927F928F929F92AF92BF92CF928E
:100A2000DF92EF92FF920F931F93CF93DF93CDB797
:100A3000DEB7CA1BDB0B0FB6F894DEBF0FBECDBF0F
:100A400009942A88398848885F846E847D848C84E0
:100A50009B84AA84B984C884DF80EE80FD800C81E9
:100A60001B81AA81B981CE0FD11D0FB6F894DEBFCC
:0C0A70000FBECDBFED010895F894FFCF3C
:100A7C005941574343573A2025640A005448524F72
:100A8C0054544C4555503A2025640A00524F4C4C56
:100A9C004C4546543A2025640A0050495443484674
:100AAC004F52574152443A2025640A004D4F444559
:100ABC00425554544F4E3A2025640A005345525621
:100ACC004F425554544F4E3A2025640A0041555418
:0E0ADC004F4C414E443A2025640A000A0000A7
:00000001FF
